{
  "contractName": "Proton",
  "abi": [
    {
      "inputs": [],
      "stateMutability": "nonpayable",
      "type": "constructor"
    },
    {
      "anonymous": false,
      "inputs": [
        {
          "indexed": true,
          "internalType": "address",
          "name": "owner",
          "type": "address"
        },
        {
          "indexed": true,
          "internalType": "address",
          "name": "spender",
          "type": "address"
        },
        {
          "indexed": false,
          "internalType": "uint256",
          "name": "value",
          "type": "uint256"
        }
      ],
      "name": "Approval",
      "type": "event"
    },
    {
      "anonymous": false,
      "inputs": [
        {
          "indexed": true,
          "internalType": "address",
          "name": "previousOwner",
          "type": "address"
        },
        {
          "indexed": true,
          "internalType": "address",
          "name": "newOwner",
          "type": "address"
        }
      ],
      "name": "OwnershipTransferred",
      "type": "event"
    },
    {
      "anonymous": false,
      "inputs": [
        {
          "indexed": true,
          "internalType": "address",
          "name": "from",
          "type": "address"
        },
        {
          "indexed": true,
          "internalType": "address",
          "name": "to",
          "type": "address"
        },
        {
          "indexed": false,
          "internalType": "uint256",
          "name": "value",
          "type": "uint256"
        }
      ],
      "name": "Transfer",
      "type": "event"
    },
    {
      "inputs": [],
      "name": "DOMAIN_SEPARATOR",
      "outputs": [
        {
          "internalType": "bytes32",
          "name": "",
          "type": "bytes32"
        }
      ],
      "stateMutability": "view",
      "type": "function"
    },
    {
      "inputs": [
        {
          "internalType": "address",
          "name": "owner",
          "type": "address"
        },
        {
          "internalType": "address",
          "name": "spender",
          "type": "address"
        }
      ],
      "name": "allowance",
      "outputs": [
        {
          "internalType": "uint256",
          "name": "",
          "type": "uint256"
        }
      ],
      "stateMutability": "view",
      "type": "function"
    },
    {
      "inputs": [
        {
          "internalType": "address",
          "name": "spender",
          "type": "address"
        },
        {
          "internalType": "uint256",
          "name": "amount",
          "type": "uint256"
        }
      ],
      "name": "approve",
      "outputs": [
        {
          "internalType": "bool",
          "name": "",
          "type": "bool"
        }
      ],
      "stateMutability": "nonpayable",
      "type": "function"
    },
    {
      "inputs": [
        {
          "internalType": "address",
          "name": "account",
          "type": "address"
        }
      ],
      "name": "balanceOf",
      "outputs": [
        {
          "internalType": "uint256",
          "name": "",
          "type": "uint256"
        }
      ],
      "stateMutability": "view",
      "type": "function"
    },
    {
      "inputs": [
        {
          "internalType": "uint256",
          "name": "amount",
          "type": "uint256"
        }
      ],
      "name": "burn",
      "outputs": [],
      "stateMutability": "nonpayable",
      "type": "function"
    },
    {
      "inputs": [
        {
          "internalType": "address",
          "name": "account",
          "type": "address"
        },
        {
          "internalType": "uint256",
          "name": "amount",
          "type": "uint256"
        }
      ],
      "name": "burnFrom",
      "outputs": [],
      "stateMutability": "nonpayable",
      "type": "function"
    },
    {
      "inputs": [],
      "name": "decimals",
      "outputs": [
        {
          "internalType": "uint8",
          "name": "",
          "type": "uint8"
        }
      ],
      "stateMutability": "view",
      "type": "function"
    },
    {
      "inputs": [
        {
          "internalType": "address",
          "name": "spender",
          "type": "address"
        },
        {
          "internalType": "uint256",
          "name": "subtractedValue",
          "type": "uint256"
        }
      ],
      "name": "decreaseAllowance",
      "outputs": [
        {
          "internalType": "bool",
          "name": "",
          "type": "bool"
        }
      ],
      "stateMutability": "nonpayable",
      "type": "function"
    },
    {
      "inputs": [
        {
          "internalType": "address",
          "name": "spender",
          "type": "address"
        },
        {
          "internalType": "uint256",
          "name": "addedValue",
          "type": "uint256"
        }
      ],
      "name": "increaseAllowance",
      "outputs": [
        {
          "internalType": "bool",
          "name": "",
          "type": "bool"
        }
      ],
      "stateMutability": "nonpayable",
      "type": "function"
    },
    {
      "inputs": [],
      "name": "name",
      "outputs": [
        {
          "internalType": "string",
          "name": "",
          "type": "string"
        }
      ],
      "stateMutability": "view",
      "type": "function"
    },
    {
      "inputs": [
        {
          "internalType": "address",
          "name": "owner",
          "type": "address"
        }
      ],
      "name": "nonces",
      "outputs": [
        {
          "internalType": "uint256",
          "name": "",
          "type": "uint256"
        }
      ],
      "stateMutability": "view",
      "type": "function"
    },
    {
      "inputs": [],
      "name": "owner",
      "outputs": [
        {
          "internalType": "address",
          "name": "",
          "type": "address"
        }
      ],
      "stateMutability": "view",
      "type": "function"
    },
    {
      "inputs": [
        {
          "internalType": "address",
          "name": "owner",
          "type": "address"
        },
        {
          "internalType": "address",
          "name": "spender",
          "type": "address"
        },
        {
          "internalType": "uint256",
          "name": "value",
          "type": "uint256"
        },
        {
          "internalType": "uint256",
          "name": "deadline",
          "type": "uint256"
        },
        {
          "internalType": "uint8",
          "name": "v",
          "type": "uint8"
        },
        {
          "internalType": "bytes32",
          "name": "r",
          "type": "bytes32"
        },
        {
          "internalType": "bytes32",
          "name": "s",
          "type": "bytes32"
        }
      ],
      "name": "permit",
      "outputs": [],
      "stateMutability": "nonpayable",
      "type": "function"
    },
    {
      "inputs": [],
      "name": "renounceOwnership",
      "outputs": [],
      "stateMutability": "nonpayable",
      "type": "function"
    },
    {
      "inputs": [],
      "name": "symbol",
      "outputs": [
        {
          "internalType": "string",
          "name": "",
          "type": "string"
        }
      ],
      "stateMutability": "view",
      "type": "function"
    },
    {
      "inputs": [],
      "name": "totalSupply",
      "outputs": [
        {
          "internalType": "uint256",
          "name": "",
          "type": "uint256"
        }
      ],
      "stateMutability": "view",
      "type": "function"
    },
    {
      "inputs": [
        {
          "internalType": "address",
          "name": "to",
          "type": "address"
        },
        {
          "internalType": "uint256",
          "name": "amount",
          "type": "uint256"
        }
      ],
      "name": "transfer",
      "outputs": [
        {
          "internalType": "bool",
          "name": "",
          "type": "bool"
        }
      ],
      "stateMutability": "nonpayable",
      "type": "function"
    },
    {
      "inputs": [
        {
          "internalType": "address",
          "name": "from",
          "type": "address"
        },
        {
          "internalType": "address",
          "name": "to",
          "type": "address"
        },
        {
          "internalType": "uint256",
          "name": "amount",
          "type": "uint256"
        }
      ],
      "name": "transferFrom",
      "outputs": [
        {
          "internalType": "bool",
          "name": "",
          "type": "bool"
        }
      ],
      "stateMutability": "nonpayable",
      "type": "function"
    },
    {
      "inputs": [
        {
          "internalType": "address",
          "name": "newOwner",
          "type": "address"
        }
      ],
      "name": "transferOwnership",
      "outputs": [],
      "stateMutability": "nonpayable",
      "type": "function"
    },
    {
      "inputs": [
        {
          "internalType": "address",
          "name": "to",
          "type": "address"
        },
        {
          "internalType": "uint256",
          "name": "amount",
          "type": "uint256"
        }
      ],
      "name": "mint",
      "outputs": [],
      "stateMutability": "nonpayable",
      "type": "function"
    }
  ],
  "bytecode": "0x6101606040527f6e71edae12b1b97f4d1f60370fef10105fa2faae0126114a169c64845d6126c9610140908152503480156200003a57600080fd5b506040518060400160405280600681526020017f50726f746f6e0000000000000000000000000000000000000000000000000000815250806040518060400160405280600181526020017f31000000000000000000000000000000000000000000000000000000000000008152506040518060400160405280600881526020017f50726f746f6e76320000000000000000000000000000000000000000000000008152506040518060400160405280600681526020017f5052544e7632000000000000000000000000000000000000000000000000000081525081600390805190602001906200012c9291906200032b565b508060049080519060200190620001459291906200032b565b505050620001686200015c6200022160201b60201c565b6200022960201b60201c565b60008280519060200120905060008280519060200120905060007f8b73c3c69bb8fe3d512ecc4cf759cc79239f7b179b0ffacaa9a75d522b39400f90508260e081815250508161010081815250504660a08181525050620001d1818484620002ef60201b60201c565b608081815250503073ffffffffffffffffffffffffffffffffffffffff1660c08173ffffffffffffffffffffffffffffffffffffffff168152505080610120818152505050505050505062000517565b600033905090565b6000600560009054906101000a900473ffffffffffffffffffffffffffffffffffffffff16905081600560006101000a81548173ffffffffffffffffffffffffffffffffffffffff021916908373ffffffffffffffffffffffffffffffffffffffff1602179055508173ffffffffffffffffffffffffffffffffffffffff168173ffffffffffffffffffffffffffffffffffffffff167f8be0079c531659141344cd1fd0a4f28419497f9722a3daafe3b4186f6b6457e060405160405180910390a35050565b600083838346306040516020016200030c95949392919062000456565b6040516020818303038152906040528051906020012090509392505050565b8280546200033990620004e2565b90600052602060002090601f0160209004810192826200035d5760008555620003a9565b82601f106200037857805160ff1916838001178555620003a9565b82800160010185558215620003a9579182015b82811115620003a85782518255916020019190600101906200038b565b5b509050620003b89190620003bc565b5090565b5b80821115620003d7576000816000905550600101620003bd565b5090565b6000819050919050565b620003f081620003db565b82525050565b6000819050919050565b6200040b81620003f6565b82525050565b600073ffffffffffffffffffffffffffffffffffffffff82169050919050565b60006200043e8262000411565b9050919050565b620004508162000431565b82525050565b600060a0820190506200046d6000830188620003e5565b6200047c6020830187620003e5565b6200048b6040830186620003e5565b6200049a606083018562000400565b620004a9608083018462000445565b9695505050505050565b7f4e487b7100000000000000000000000000000000000000000000000000000000600052602260045260246000fd5b60006002820490506001821680620004fb57607f821691505b602082108103620005115762000510620004b3565b5b50919050565b60805160a05160c05160e051610100516101205161014051612ae96200057260003960006109990152600061119c015260006111de015260006111bd015260006110f201526000611148015260006111710152612ae96000f3fe608060405234801561001057600080fd5b506004361061012c5760003560e01c8063715018a6116100ad578063a457c2d711610071578063a457c2d714610333578063a9059cbb14610363578063d505accf14610393578063dd62ed3e146103af578063f2fde38b146103df5761012c565b8063715018a6146102a157806379cc6790146102ab5780637ecebe00146102c75780638da5cb5b146102f757806395d89b41146103155761012c565b80633644e515116100f45780633644e515146101eb578063395093511461020957806340c10f191461023957806342966c681461025557806370a08231146102715761012c565b806306fdde0314610131578063095ea7b31461014f57806318160ddd1461017f57806323b872dd1461019d578063313ce567146101cd575b600080fd5b6101396103fb565b6040516101469190611ab2565b60405180910390f35b61016960048036038101906101649190611b6d565b61048d565b6040516101769190611bc8565b60405180910390f35b6101876104b0565b6040516101949190611bf2565b60405180910390f35b6101b760048036038101906101b29190611c0d565b6104ba565b6040516101c49190611bc8565b60405180910390f35b6101d56104e9565b6040516101e29190611c7c565b60405180910390f35b6101f36104f2565b6040516102009190611cb0565b60405180910390f35b610223600480360381019061021e9190611b6d565b610501565b6040516102309190611bc8565b60405180910390f35b610253600480360381019061024e9190611b6d565b6105ab565b005b61026f600480360381019061026a9190611ccb565b610635565b005b61028b60048036038101906102869190611cf8565b610649565b6040516102989190611bf2565b60405180910390f35b6102a9610691565b005b6102c560048036038101906102c09190611b6d565b610719565b005b6102e160048036038101906102dc9190611cf8565b610739565b6040516102ee9190611bf2565b60405180910390f35b6102ff610789565b60405161030c9190611d34565b60405180910390f35b61031d6107b3565b60405161032a9190611ab2565b60405180910390f35b61034d60048036038101906103489190611b6d565b610845565b60405161035a9190611bc8565b60405180910390f35b61037d60048036038101906103789190611b6d565b61092f565b60405161038a9190611bc8565b60405180910390f35b6103ad60048036038101906103a89190611da7565b610952565b005b6103c960048036038101906103c49190611e49565b610a94565b6040516103d69190611bf2565b60405180910390f35b6103f960048036038101906103f49190611cf8565b610b1b565b005b60606003805461040a90611eb8565b80601f016020809104026020016040519081016040528092919081815260200182805461043690611eb8565b80156104835780601f1061045857610100808354040283529160200191610483565b820191906000526020600020905b81548152906001019060200180831161046657829003601f168201915b5050505050905090565b600080610498610c12565b90506104a5818585610c1a565b600191505092915050565b6000600254905090565b6000806104c5610c12565b90506104d2858285610de3565b6104dd858585610e6f565b60019150509392505050565b60006012905090565b60006104fc6110ee565b905090565b60008061050c610c12565b90506105a0818585600160008673ffffffffffffffffffffffffffffffffffffffff1673ffffffffffffffffffffffffffffffffffffffff16815260200190815260200160002060008973ffffffffffffffffffffffffffffffffffffffff1673ffffffffffffffffffffffffffffffffffffffff1681526020019081526020016000205461059b9190611f18565b610c1a565b600191505092915050565b6105b3610c12565b73ffffffffffffffffffffffffffffffffffffffff166105d1610789565b73ffffffffffffffffffffffffffffffffffffffff1614610627576040517f08c379a000000000000000000000000000000000000000000000000000000000815260040161061e90611fba565b60405180910390fd5b6106318282611208565b5050565b610646610640610c12565b82611367565b50565b60008060008373ffffffffffffffffffffffffffffffffffffffff1673ffffffffffffffffffffffffffffffffffffffff168152602001908152602001600020549050919050565b610699610c12565b73ffffffffffffffffffffffffffffffffffffffff166106b7610789565b73ffffffffffffffffffffffffffffffffffffffff161461070d576040517f08c379a000000000000000000000000000000000000000000000000000000000815260040161070490611fba565b60405180910390fd5b610717600061153d565b565b61072b82610725610c12565b83610de3565b6107358282611367565b5050565b6000610782600660008473ffffffffffffffffffffffffffffffffffffffff1673ffffffffffffffffffffffffffffffffffffffff168152602001908152602001600020611603565b9050919050565b6000600560009054906101000a900473ffffffffffffffffffffffffffffffffffffffff16905090565b6060600480546107c290611eb8565b80601f01602080910402602001604051908101604052809291908181526020018280546107ee90611eb8565b801561083b5780601f106108105761010080835404028352916020019161083b565b820191906000526020600020905b81548152906001019060200180831161081e57829003601f168201915b5050505050905090565b600080610850610c12565b90506000600160008373ffffffffffffffffffffffffffffffffffffffff1673ffffffffffffffffffffffffffffffffffffffff16815260200190815260200160002060008673ffffffffffffffffffffffffffffffffffffffff1673ffffffffffffffffffffffffffffffffffffffff16815260200190815260200160002054905083811015610916576040517f08c379a000000000000000000000000000000000000000000000000000000000815260040161090d9061204c565b60405180910390fd5b6109238286868403610c1a565b60019250505092915050565b60008061093a610c12565b9050610947818585610e6f565b600191505092915050565b83421115610995576040517f08c379a000000000000000000000000000000000000000000000000000000000815260040161098c906120b8565b60405180910390fd5b60007f00000000000000000000000000000000000000000000000000000000000000008888886109c48c611611565b896040516020016109da969594939291906120d8565b60405160208183030381529060405280519060200120905060006109fd8261166f565b90506000610a0d82878787611689565b90508973ffffffffffffffffffffffffffffffffffffffff168173ffffffffffffffffffffffffffffffffffffffff1614610a7d576040517f08c379a0000000000000000000000000000000000000000000000000000000008152600401610a7490612185565b60405180910390fd5b610a888a8a8a610c1a565b50505050505050505050565b6000600160008473ffffffffffffffffffffffffffffffffffffffff1673ffffffffffffffffffffffffffffffffffffffff16815260200190815260200160002060008373ffffffffffffffffffffffffffffffffffffffff1673ffffffffffffffffffffffffffffffffffffffff16815260200190815260200160002054905092915050565b610b23610c12565b73ffffffffffffffffffffffffffffffffffffffff16610b41610789565b73ffffffffffffffffffffffffffffffffffffffff1614610b97576040517f08c379a0000000000000000000000000000000000000000000000000000000008152600401610b8e90611fba565b60405180910390fd5b600073ffffffffffffffffffffffffffffffffffffffff168173ffffffffffffffffffffffffffffffffffffffff1603610c06576040517f08c379a0000000000000000000000000000000000000000000000000000000008152600401610bfd90612217565b60405180910390fd5b610c0f8161153d565b50565b600033905090565b600073ffffffffffffffffffffffffffffffffffffffff168373ffffffffffffffffffffffffffffffffffffffff1603610c89576040517f08c379a0000000000000000000000000000000000000000000000000000000008152600401610c80906122a9565b60405180910390fd5b600073ffffffffffffffffffffffffffffffffffffffff168273ffffffffffffffffffffffffffffffffffffffff1603610cf8576040517f08c379a0000000000000000000000000000000000000000000000000000000008152600401610cef9061233b565b60405180910390fd5b80600160008573ffffffffffffffffffffffffffffffffffffffff1673ffffffffffffffffffffffffffffffffffffffff16815260200190815260200160002060008473ffffffffffffffffffffffffffffffffffffffff1673ffffffffffffffffffffffffffffffffffffffff168152602001908152602001600020819055508173ffffffffffffffffffffffffffffffffffffffff168373ffffffffffffffffffffffffffffffffffffffff167f8c5be1e5ebec7d5bd14f71427d1e84f3dd0314c0f7b2291e5b200ac8c7c3b92583604051610dd69190611bf2565b60405180910390a3505050565b6000610def8484610a94565b90507fffffffffffffffffffffffffffffffffffffffffffffffffffffffffffffffff8114610e695781811015610e5b576040517f08c379a0000000000000000000000000000000000000000000000000000000008152600401610e52906123a7565b60405180910390fd5b610e688484848403610c1a565b5b50505050565b600073ffffffffffffffffffffffffffffffffffffffff168373ffffffffffffffffffffffffffffffffffffffff1603610ede576040517f08c379a0000000000000000000000000000000000000000000000000000000008152600401610ed590612439565b60405180910390fd5b600073ffffffffffffffffffffffffffffffffffffffff168273ffffffffffffffffffffffffffffffffffffffff1603610f4d576040517f08c379a0000000000000000000000000000000000000000000000000000000008152600401610f44906124cb565b60405180910390fd5b610f588383836116b4565b60008060008573ffffffffffffffffffffffffffffffffffffffff1673ffffffffffffffffffffffffffffffffffffffff16815260200190815260200160002054905081811015610fde576040517f08c379a0000000000000000000000000000000000000000000000000000000008152600401610fd59061255d565b60405180910390fd5b8181036000808673ffffffffffffffffffffffffffffffffffffffff1673ffffffffffffffffffffffffffffffffffffffff16815260200190815260200160002081905550816000808573ffffffffffffffffffffffffffffffffffffffff1673ffffffffffffffffffffffffffffffffffffffff16815260200190815260200160002060008282546110719190611f18565b925050819055508273ffffffffffffffffffffffffffffffffffffffff168473ffffffffffffffffffffffffffffffffffffffff167fddf252ad1be2c89b69c2b068fc378daa952ba7f163c4a11628f55a4df523b3ef846040516110d59190611bf2565b60405180910390a36110e88484846116b9565b50505050565b60007f000000000000000000000000000000000000000000000000000000000000000073ffffffffffffffffffffffffffffffffffffffff163073ffffffffffffffffffffffffffffffffffffffff1614801561116a57507f000000000000000000000000000000000000000000000000000000000000000046145b15611197577f00000000000000000000000000000000000000000000000000000000000000009050611205565b6112027f00000000000000000000000000000000000000000000000000000000000000007f00000000000000000000000000000000000000000000000000000000000000007f00000000000000000000000000000000000000000000000000000000000000006116be565b90505b90565b600073ffffffffffffffffffffffffffffffffffffffff168273ffffffffffffffffffffffffffffffffffffffff1603611277576040517f08c379a000000000000000000000000000000000000000000000000000000000815260040161126e906125c9565b60405180910390fd5b611283600083836116b4565b80600260008282546112959190611f18565b92505081905550806000808473ffffffffffffffffffffffffffffffffffffffff1673ffffffffffffffffffffffffffffffffffffffff16815260200190815260200160002060008282546112ea9190611f18565b925050819055508173ffffffffffffffffffffffffffffffffffffffff16600073ffffffffffffffffffffffffffffffffffffffff167fddf252ad1be2c89b69c2b068fc378daa952ba7f163c4a11628f55a4df523b3ef8360405161134f9190611bf2565b60405180910390a3611363600083836116b9565b5050565b600073ffffffffffffffffffffffffffffffffffffffff168273ffffffffffffffffffffffffffffffffffffffff16036113d6576040517f08c379a00000000000000000000000000000000000000000000000000000000081526004016113cd9061265b565b60405180910390fd5b6113e2826000836116b4565b60008060008473ffffffffffffffffffffffffffffffffffffffff1673ffffffffffffffffffffffffffffffffffffffff16815260200190815260200160002054905081811015611468576040517f08c379a000000000000000000000000000000000000000000000000000000000815260040161145f906126ed565b60405180910390fd5b8181036000808573ffffffffffffffffffffffffffffffffffffffff1673ffffffffffffffffffffffffffffffffffffffff1681526020019081526020016000208190555081600260008282546114bf919061270d565b92505081905550600073ffffffffffffffffffffffffffffffffffffffff168373ffffffffffffffffffffffffffffffffffffffff167fddf252ad1be2c89b69c2b068fc378daa952ba7f163c4a11628f55a4df523b3ef846040516115249190611bf2565b60405180910390a3611538836000846116b9565b505050565b6000600560009054906101000a900473ffffffffffffffffffffffffffffffffffffffff16905081600560006101000a81548173ffffffffffffffffffffffffffffffffffffffff021916908373ffffffffffffffffffffffffffffffffffffffff1602179055508173ffffffffffffffffffffffffffffffffffffffff168173ffffffffffffffffffffffffffffffffffffffff167f8be0079c531659141344cd1fd0a4f28419497f9722a3daafe3b4186f6b6457e060405160405180910390a35050565b600081600001549050919050565b600080600660008473ffffffffffffffffffffffffffffffffffffffff1673ffffffffffffffffffffffffffffffffffffffff168152602001908152602001600020905061165e81611603565b9150611669816116f8565b50919050565b600061168261167c6110ee565b8361170e565b9050919050565b600080600061169a87878787611741565b915091506116a78161184d565b8192505050949350505050565b505050565b505050565b600083838346306040516020016116d9959493929190612741565b6040516020818303038152906040528051906020012090509392505050565b6001816000016000828254019250508190555050565b6000828260405160200161172392919061280c565b60405160208183030381529060405280519060200120905092915050565b6000807f7fffffffffffffffffffffffffffffff5d576e7357a4501ddfe92f46681b20a08360001c111561177c576000600391509150611844565b601b8560ff16141580156117945750601c8560ff1614155b156117a6576000600491509150611844565b6000600187878787604051600081526020016040526040516117cb9493929190612843565b6020604051602081039080840390855afa1580156117ed573d6000803e3d6000fd5b505050602060405103519050600073ffffffffffffffffffffffffffffffffffffffff168173ffffffffffffffffffffffffffffffffffffffff160361183b57600060019250925050611844565b80600092509250505b94509492505050565b6000600481111561186157611860612888565b5b81600481111561187457611873612888565b5b0315611a16576001600481111561188e5761188d612888565b5b8160048111156118a1576118a0612888565b5b036118e1576040517f08c379a00000000000000000000000000000000000000000000000000000000081526004016118d890612903565b60405180910390fd5b600260048111156118f5576118f4612888565b5b81600481111561190857611907612888565b5b03611948576040517f08c379a000000000000000000000000000000000000000000000000000000000815260040161193f9061296f565b60405180910390fd5b6003600481111561195c5761195b612888565b5b81600481111561196f5761196e612888565b5b036119af576040517f08c379a00000000000000000000000000000000000000000000000000000000081526004016119a690612a01565b60405180910390fd5b6004808111156119c2576119c1612888565b5b8160048111156119d5576119d4612888565b5b03611a15576040517f08c379a0000000000000000000000000000000000000000000000000000000008152600401611a0c90612a93565b60405180910390fd5b5b50565b600081519050919050565b600082825260208201905092915050565b60005b83811015611a53578082015181840152602081019050611a38565b83811115611a62576000848401525b50505050565b6000601f19601f8301169050919050565b6000611a8482611a19565b611a8e8185611a24565b9350611a9e818560208601611a35565b611aa781611a68565b840191505092915050565b60006020820190508181036000830152611acc8184611a79565b905092915050565b600080fd5b600073ffffffffffffffffffffffffffffffffffffffff82169050919050565b6000611b0482611ad9565b9050919050565b611b1481611af9565b8114611b1f57600080fd5b50565b600081359050611b3181611b0b565b92915050565b6000819050919050565b611b4a81611b37565b8114611b5557600080fd5b50565b600081359050611b6781611b41565b92915050565b60008060408385031215611b8457611b83611ad4565b5b6000611b9285828601611b22565b9250506020611ba385828601611b58565b9150509250929050565b60008115159050919050565b611bc281611bad565b82525050565b6000602082019050611bdd6000830184611bb9565b92915050565b611bec81611b37565b82525050565b6000602082019050611c076000830184611be3565b92915050565b600080600060608486031215611c2657611c25611ad4565b5b6000611c3486828701611b22565b9350506020611c4586828701611b22565b9250506040611c5686828701611b58565b9150509250925092565b600060ff82169050919050565b611c7681611c60565b82525050565b6000602082019050611c916000830184611c6d565b92915050565b6000819050919050565b611caa81611c97565b82525050565b6000602082019050611cc56000830184611ca1565b92915050565b600060208284031215611ce157611ce0611ad4565b5b6000611cef84828501611b58565b91505092915050565b600060208284031215611d0e57611d0d611ad4565b5b6000611d1c84828501611b22565b91505092915050565b611d2e81611af9565b82525050565b6000602082019050611d496000830184611d25565b92915050565b611d5881611c60565b8114611d6357600080fd5b50565b600081359050611d7581611d4f565b92915050565b611d8481611c97565b8114611d8f57600080fd5b50565b600081359050611da181611d7b565b92915050565b600080600080600080600060e0888a031215611dc657611dc5611ad4565b5b6000611dd48a828b01611b22565b9750506020611de58a828b01611b22565b9650506040611df68a828b01611b58565b9550506060611e078a828b01611b58565b9450506080611e188a828b01611d66565b93505060a0611e298a828b01611d92565b92505060c0611e3a8a828b01611d92565b91505092959891949750929550565b60008060408385031215611e6057611e5f611ad4565b5b6000611e6e85828601611b22565b9250506020611e7f85828601611b22565b9150509250929050565b7f4e487b7100000000000000000000000000000000000000000000000000000000600052602260045260246000fd5b60006002820490506001821680611ed057607f821691505b602082108103611ee357611ee2611e89565b5b50919050565b7f4e487b7100000000000000000000000000000000000000000000000000000000600052601160045260246000fd5b6000611f2382611b37565b9150611f2e83611b37565b9250827fffffffffffffffffffffffffffffffffffffffffffffffffffffffffffffffff03821115611f6357611f62611ee9565b5b828201905092915050565b7f4f776e61626c653a2063616c6c6572206973206e6f7420746865206f776e6572600082015250565b6000611fa4602083611a24565b9150611faf82611f6e565b602082019050919050565b60006020820190508181036000830152611fd381611f97565b9050919050565b7f45524332303a2064656372656173656420616c6c6f77616e63652062656c6f7760008201527f207a65726f000000000000000000000000000000000000000000000000000000602082015250565b6000612036602583611a24565b915061204182611fda565b604082019050919050565b6000602082019050818103600083015261206581612029565b9050919050565b7f45524332305065726d69743a206578706972656420646561646c696e65000000600082015250565b60006120a2601d83611a24565b91506120ad8261206c565b602082019050919050565b600060208201905081810360008301526120d181612095565b9050919050565b600060c0820190506120ed6000830189611ca1565b6120fa6020830188611d25565b6121076040830187611d25565b6121146060830186611be3565b6121216080830185611be3565b61212e60a0830184611be3565b979650505050505050565b7f45524332305065726d69743a20696e76616c6964207369676e61747572650000600082015250565b600061216f601e83611a24565b915061217a82612139565b602082019050919050565b6000602082019050818103600083015261219e81612162565b9050919050565b7f4f776e61626c653a206e6577206f776e657220697320746865207a65726f206160008201527f6464726573730000000000000000000000000000000000000000000000000000602082015250565b6000612201602683611a24565b915061220c826121a5565b604082019050919050565b60006020820190508181036000830152612230816121f4565b9050919050565b7f45524332303a20617070726f76652066726f6d20746865207a65726f2061646460008201527f7265737300000000000000000000000000000000000000000000000000000000602082015250565b6000612293602483611a24565b915061229e82612237565b604082019050919050565b600060208201905081810360008301526122c281612286565b9050919050565b7f45524332303a20617070726f766520746f20746865207a65726f20616464726560008201527f7373000000000000000000000000000000000000000000000000000000000000602082015250565b6000612325602283611a24565b9150612330826122c9565b604082019050919050565b6000602082019050818103600083015261235481612318565b9050919050565b7f45524332303a20696e73756666696369656e7420616c6c6f77616e6365000000600082015250565b6000612391601d83611a24565b915061239c8261235b565b602082019050919050565b600060208201905081810360008301526123c081612384565b9050919050565b7f45524332303a207472616e736665722066726f6d20746865207a65726f20616460008201527f6472657373000000000000000000000000000000000000000000000000000000602082015250565b6000612423602583611a24565b915061242e826123c7565b604082019050919050565b6000602082019050818103600083015261245281612416565b9050919050565b7f45524332303a207472616e7366657220746f20746865207a65726f206164647260008201527f6573730000000000000000000000000000000000000000000000000000000000602082015250565b60006124b5602383611a24565b91506124c082612459565b604082019050919050565b600060208201905081810360008301526124e4816124a8565b9050919050565b7f45524332303a207472616e7366657220616d6f756e742065786365656473206260008201527f616c616e63650000000000000000000000000000000000000000000000000000602082015250565b6000612547602683611a24565b9150612552826124eb565b604082019050919050565b600060208201905081810360008301526125768161253a565b9050919050565b7f45524332303a206d696e7420746f20746865207a65726f206164647265737300600082015250565b60006125b3601f83611a24565b91506125be8261257d565b602082019050919050565b600060208201905081810360008301526125e2816125a6565b9050919050565b7f45524332303a206275726e2066726f6d20746865207a65726f2061646472657360008201527f7300000000000000000000000000000000000000000000000000000000000000602082015250565b6000612645602183611a24565b9150612650826125e9565b604082019050919050565b6000602082019050818103600083015261267481612638565b9050919050565b7f45524332303a206275726e20616d6f756e7420657863656564732062616c616e60008201527f6365000000000000000000000000000000000000000000000000000000000000602082015250565b60006126d7602283611a24565b91506126e28261267b565b604082019050919050565b60006020820190508181036000830152612706816126ca565b9050919050565b600061271882611b37565b915061272383611b37565b92508282101561273657612735611ee9565b5b828203905092915050565b600060a0820190506127566000830188611ca1565b6127636020830187611ca1565b6127706040830186611ca1565b61277d6060830185611be3565b61278a6080830184611d25565b9695505050505050565b600081905092915050565b7f1901000000000000000000000000000000000000000000000000000000000000600082015250565b60006127d5600283612794565b91506127e08261279f565b600282019050919050565b6000819050919050565b61280661280182611c97565b6127eb565b82525050565b6000612817826127c8565b915061282382856127f5565b60208201915061283382846127f5565b6020820191508190509392505050565b60006080820190506128586000830187611ca1565b6128656020830186611c6d565b6128726040830185611ca1565b61287f6060830184611ca1565b95945050505050565b7f4e487b7100000000000000000000000000000000000000000000000000000000600052602160045260246000fd5b7f45434453413a20696e76616c6964207369676e61747572650000000000000000600082015250565b60006128ed601883611a24565b91506128f8826128b7565b602082019050919050565b6000602082019050818103600083015261291c816128e0565b9050919050565b7f45434453413a20696e76616c6964207369676e6174757265206c656e67746800600082015250565b6000612959601f83611a24565b915061296482612923565b602082019050919050565b600060208201905081810360008301526129888161294c565b9050919050565b7f45434453413a20696e76616c6964207369676e6174757265202773272076616c60008201527f7565000000000000000000000000000000000000000000000000000000000000602082015250565b60006129eb602283611a24565b91506129f68261298f565b604082019050919050565b60006020820190508181036000830152612a1a816129de565b9050919050565b7f45434453413a20696e76616c6964207369676e6174757265202776272076616c60008201527f7565000000000000000000000000000000000000000000000000000000000000602082015250565b6000612a7d602283611a24565b9150612a8882612a21565b604082019050919050565b60006020820190508181036000830152612aac81612a70565b905091905056fea264697066735822122036b82f3bcc818cc6d58e58310146489f56d0da179e1257c51e8836eba55af25f64736f6c634300080d0033",
  "immutableReferences": {
    "867": [
      {
        "length": 32,
        "start": 2457
      }
    ],
    "1756": [
      {
        "length": 32,
        "start": 4465
      }
    ],
    "1758": [
      {
        "length": 32,
        "start": 4424
      }
    ],
    "1760": [
      {
        "length": 32,
        "start": 4338
      }
    ],
    "1762": [
      {
        "length": 32,
        "start": 4541
      }
    ],
    "1764": [
      {
        "length": 32,
        "start": 4574
      }
    ],
    "1766": [
      {
        "length": 32,
        "start": 4508
      }
    ]
  },
  "source": "// SPDX-License-Identifier: MIT\r\npragma solidity ^0.8.4;\r\n\r\nimport \"@openzeppelin/contracts/token/ERC20/ERC20.sol\";\r\nimport \"@openzeppelin/contracts/token/ERC20/extensions/ERC20Burnable.sol\";\r\nimport \"@openzeppelin/contracts/access/Ownable.sol\";\r\nimport \"@openzeppelin/contracts/token/ERC20/extensions/draft-ERC20Permit.sol\";\r\n\r\ncontract Proton is ERC20, ERC20Burnable, Ownable, ERC20Permit {\r\n    constructor() ERC20(\"Protonv2\", \"PRTNv2\") ERC20Permit(\"Proton\") {}\r\n\r\n    function mint(address to, uint256 amount) public onlyOwner {\r\n        _mint(to, amount);\r\n    }\r\n}\r\n",
  "sourcePath": "E:\\Blockchain\\Projects\\scambuster\\contracts\\token.sol",
  "compiler": {
    "name": "solc",
    "version": "0.8.13+commit.abaa5c0e.Emscripten.clang"
  },
  "schemaVersion": "3.4.4",
  "updatedAt": "2022-04-24T04:44:49.180Z",
  "devdoc": {
    "kind": "dev",
    "methods": {
      "DOMAIN_SEPARATOR()": {
        "details": "See {IERC20Permit-DOMAIN_SEPARATOR}."
      },
      "allowance(address,address)": {
        "details": "See {IERC20-allowance}."
      },
      "approve(address,uint256)": {
        "details": "See {IERC20-approve}. NOTE: If `amount` is the maximum `uint256`, the allowance is not updated on `transferFrom`. This is semantically equivalent to an infinite approval. Requirements: - `spender` cannot be the zero address."
      },
      "balanceOf(address)": {
        "details": "See {IERC20-balanceOf}."
      },
      "burn(uint256)": {
        "details": "Destroys `amount` tokens from the caller. See {ERC20-_burn}."
      },
      "burnFrom(address,uint256)": {
        "details": "Destroys `amount` tokens from `account`, deducting from the caller's allowance. See {ERC20-_burn} and {ERC20-allowance}. Requirements: - the caller must have allowance for ``accounts``'s tokens of at least `amount`."
      },
      "decimals()": {
        "details": "Returns the number of decimals used to get its user representation. For example, if `decimals` equals `2`, a balance of `505` tokens should be displayed to a user as `5.05` (`505 / 10 ** 2`). Tokens usually opt for a value of 18, imitating the relationship between Ether and Wei. This is the value {ERC20} uses, unless this function is overridden; NOTE: This information is only used for _display_ purposes: it in no way affects any of the arithmetic of the contract, including {IERC20-balanceOf} and {IERC20-transfer}."
      },
      "decreaseAllowance(address,uint256)": {
        "details": "Atomically decreases the allowance granted to `spender` by the caller. This is an alternative to {approve} that can be used as a mitigation for problems described in {IERC20-approve}. Emits an {Approval} event indicating the updated allowance. Requirements: - `spender` cannot be the zero address. - `spender` must have allowance for the caller of at least `subtractedValue`."
      },
      "increaseAllowance(address,uint256)": {
        "details": "Atomically increases the allowance granted to `spender` by the caller. This is an alternative to {approve} that can be used as a mitigation for problems described in {IERC20-approve}. Emits an {Approval} event indicating the updated allowance. Requirements: - `spender` cannot be the zero address."
      },
      "name()": {
        "details": "Returns the name of the token."
      },
      "nonces(address)": {
        "details": "See {IERC20Permit-nonces}."
      },
      "owner()": {
        "details": "Returns the address of the current owner."
      },
      "permit(address,address,uint256,uint256,uint8,bytes32,bytes32)": {
        "details": "See {IERC20Permit-permit}."
      },
      "renounceOwnership()": {
        "details": "Leaves the contract without owner. It will not be possible to call `onlyOwner` functions anymore. Can only be called by the current owner. NOTE: Renouncing ownership will leave the contract without an owner, thereby removing any functionality that is only available to the owner."
      },
      "symbol()": {
        "details": "Returns the symbol of the token, usually a shorter version of the name."
      },
      "totalSupply()": {
        "details": "See {IERC20-totalSupply}."
      },
      "transfer(address,uint256)": {
        "details": "See {IERC20-transfer}. Requirements: - `to` cannot be the zero address. - the caller must have a balance of at least `amount`."
      },
      "transferFrom(address,address,uint256)": {
        "details": "See {IERC20-transferFrom}. Emits an {Approval} event indicating the updated allowance. This is not required by the EIP. See the note at the beginning of {ERC20}. NOTE: Does not update the allowance if the current allowance is the maximum `uint256`. Requirements: - `from` and `to` cannot be the zero address. - `from` must have a balance of at least `amount`. - the caller must have allowance for ``from``'s tokens of at least `amount`."
      },
      "transferOwnership(address)": {
        "details": "Transfers ownership of the contract to a new account (`newOwner`). Can only be called by the current owner."
      }
    },
    "version": 1
  },
  "userdoc": {
    "kind": "user",
    "methods": {},
    "version": 1
  }
}