{
  "contractName": "validator",
  "abi": [
    {
      "anonymous": false,
      "inputs": [
        {
          "indexed": true,
          "internalType": "address",
          "name": "_nominee",
          "type": "address"
        },
        {
          "indexed": true,
          "internalType": "string",
          "name": "_url",
          "type": "string"
        },
        {
          "indexed": true,
          "internalType": "string",
          "name": "_comment",
          "type": "string"
        }
      ],
      "name": "siteAdded",
      "type": "event"
    },
    {
      "anonymous": false,
      "inputs": [
        {
          "indexed": true,
          "internalType": "address",
          "name": "_validator",
          "type": "address"
        },
        {
          "indexed": true,
          "internalType": "bool",
          "name": "_isScam",
          "type": "bool"
        }
      ],
      "name": "voted",
      "type": "event"
    },
    {
      "inputs": [
        {
          "internalType": "string",
          "name": "",
          "type": "string"
        }
      ],
      "name": "sitelist",
      "outputs": [
        {
          "internalType": "address",
          "name": "nominee",
          "type": "address"
        },
        {
          "internalType": "string",
          "name": "comment",
          "type": "string"
        },
        {
          "internalType": "uint256",
          "name": "yesVotes",
          "type": "uint256"
        },
        {
          "internalType": "uint256",
          "name": "noVotes",
          "type": "uint256"
        }
      ],
      "stateMutability": "view",
      "type": "function"
    },
    {
      "inputs": [
        {
          "internalType": "string",
          "name": "_url",
          "type": "string"
        },
        {
          "internalType": "string",
          "name": "_comment",
          "type": "string"
        }
      ],
      "name": "addSite",
      "outputs": [],
      "stateMutability": "nonpayable",
      "type": "function"
    },
    {
      "inputs": [
        {
          "internalType": "string",
          "name": "_url",
          "type": "string"
        },
        {
          "internalType": "bool",
          "name": "_isScam",
          "type": "bool"
        }
      ],
      "name": "castVote",
      "outputs": [],
      "stateMutability": "nonpayable",
      "type": "function"
    },
    {
      "inputs": [
        {
          "internalType": "string",
          "name": "_url",
          "type": "string"
        }
      ],
      "name": "getVoteStatus",
      "outputs": [
        {
          "internalType": "uint256",
          "name": "",
          "type": "uint256"
        },
        {
          "internalType": "bool",
          "name": "",
          "type": "bool"
        }
      ],
      "stateMutability": "view",
      "type": "function"
    }
  ],
  "bytecode": "0x60806040527329794fcc95837d24b89906eb202f3408c39826bc6000806101000a81548173ffffffffffffffffffffffffffffffffffffffff021916908373ffffffffffffffffffffffffffffffffffffffff16021790555034801561006457600080fd5b50611344806100746000396000f3fe608060405234801561001057600080fd5b506004361061004c5760003560e01c8063199edd7a1461005157806342cfe9991461006d57806356187063146100a0578063e7490367146100d1575b600080fd5b61006b60048036038101906100669190610bbd565b6100ed565b005b61008760048036038101906100829190610c19565b610546565b6040516100979493929190610d44565b60405180910390f35b6100ba60048036038101906100b59190610c19565b610634565b6040516100c8929190610d9f565b60405180910390f35b6100eb60048036038101906100e69190610dc8565b610724565b005b601960008054906101000a900473ffffffffffffffffffffffffffffffffffffffff1673ffffffffffffffffffffffffffffffffffffffff166370a08231336040518263ffffffff1660e01b81526004016101489190610e40565b602060405180830381865afa158015610165573d6000803e3d6000fd5b505050506040513d601f19601f820116820180604052508101906101899190610e87565b10156101ca576040517f08c379a00000000000000000000000000000000000000000000000000000000081526004016101c190610f26565b60405180910390fd5b60006001836040516101dc9190610f82565b908152602001604051809103902090508060040160003373ffffffffffffffffffffffffffffffffffffffff1673ffffffffffffffffffffffffffffffffffffffff16815260200190815260200160002060009054906101000a900460ff1615801561029457508060050160003373ffffffffffffffffffffffffffffffffffffffff1673ffffffffffffffffffffffffffffffffffffffff16815260200190815260200160002060009054906101000a900460ff16155b6102d3576040517f08c379a00000000000000000000000000000000000000000000000000000000081526004016102ca90610fe5565b60405180910390fd5b81156103ec5760008054906101000a900473ffffffffffffffffffffffffffffffffffffffff1673ffffffffffffffffffffffffffffffffffffffff166370a08231336040518263ffffffff1660e01b81526004016103329190610e40565b602060405180830381865afa15801561034f573d6000803e3d6000fd5b505050506040513d601f19601f820116820180604052508101906103739190610e87565b8160020160008282546103869190611034565b9250508190555060018160040160003373ffffffffffffffffffffffffffffffffffffffff1673ffffffffffffffffffffffffffffffffffffffff16815260200190815260200160002060006101000a81548160ff0219169083151502179055506104fb565b60008054906101000a900473ffffffffffffffffffffffffffffffffffffffff1673ffffffffffffffffffffffffffffffffffffffff166370a08231336040518263ffffffff1660e01b81526004016104459190610e40565b602060405180830381865afa158015610462573d6000803e3d6000fd5b505050506040513d601f19601f820116820180604052508101906104869190610e87565b8160030160008282546104999190611034565b9250508190555060018160050160003373ffffffffffffffffffffffffffffffffffffffff1673ffffffffffffffffffffffffffffffffffffffff16815260200190815260200160002060006101000a81548160ff0219169083151502179055505b8115153373ffffffffffffffffffffffffffffffffffffffff167ff3f16a15f074b71c5138107dfc7c63b80524d5411cb967caa97d8d9f12b2fd6b60405160405180910390a3505050565b6001818051602081018201805184825260208301602085012081835280955050505050506000915090508060000160009054906101000a900473ffffffffffffffffffffffffffffffffffffffff16908060010180546105a5906110b9565b80601f01602080910402602001604051908101604052809291908181526020018280546105d1906110b9565b801561061e5780601f106105f35761010080835404028352916020019161061e565b820191906000526020600020905b81548152906001019060200180831161060157829003601f168201915b5050505050908060020154908060030154905084565b60008060006001846040516106499190610f82565b90815260200160405180910390209050600081600201541180610670575060008160030154115b6106af576040517f08c379a00000000000000000000000000000000000000000000000000000000081526004016106a690611136565b60405180910390fd5b60006106cc8260030154836002015461094690919063ffffffff16565b905060006106fa826106ec6064866002015461095c90919063ffffffff16565b61097290919063ffffffff16565b9050600060328211156107105760019050610715565b600090505b81819550955050505050915091565b60006001836040516107369190610f82565b908152602001604051809103902090506000816001018054610757906110b9565b905014610799576040517f08c379a0000000000000000000000000000000000000000000000000000000008152600401610790906111a2565b60405180910390fd5b600160008054906101000a900473ffffffffffffffffffffffffffffffffffffffff1673ffffffffffffffffffffffffffffffffffffffff166370a08231336040518263ffffffff1660e01b81526004016107f49190610e40565b602060405180830381865afa158015610811573d6000803e3d6000fd5b505050506040513d601f19601f820116820180604052508101906108359190610e87565b1015610876576040517f08c379a000000000000000000000000000000000000000000000000000000000815260040161086d90611234565b60405180910390fd5b338160000160006101000a81548173ffffffffffffffffffffffffffffffffffffffff021916908373ffffffffffffffffffffffffffffffffffffffff160217905550818160010190805190602001906108d1929190610988565b50816040516108e09190610f82565b6040518091039020836040516108f69190610f82565b60405180910390203373ffffffffffffffffffffffffffffffffffffffff167f791e296e5f2955ff90bbb29b0126f16c56c05764a0090dcd7fcdc1d442a85c0560405160405180910390a4505050565b600081836109549190611034565b905092915050565b6000818361096a9190611254565b905092915050565b6000818361098091906112dd565b905092915050565b828054610994906110b9565b90600052602060002090601f0160209004810192826109b657600085556109fd565b82601f106109cf57805160ff19168380011785556109fd565b828001600101855582156109fd579182015b828111156109fc5782518255916020019190600101906109e1565b5b509050610a0a9190610a0e565b5090565b5b80821115610a27576000816000905550600101610a0f565b5090565b6000604051905090565b600080fd5b600080fd5b600080fd5b600080fd5b6000601f19601f8301169050919050565b7f4e487b7100000000000000000000000000000000000000000000000000000000600052604160045260246000fd5b610a9282610a49565b810181811067ffffffffffffffff82111715610ab157610ab0610a5a565b5b80604052505050565b6000610ac4610a2b565b9050610ad08282610a89565b919050565b600067ffffffffffffffff821115610af057610aef610a5a565b5b610af982610a49565b9050602081019050919050565b82818337600083830152505050565b6000610b28610b2384610ad5565b610aba565b905082815260208101848484011115610b4457610b43610a44565b5b610b4f848285610b06565b509392505050565b600082601f830112610b6c57610b6b610a3f565b5b8135610b7c848260208601610b15565b91505092915050565b60008115159050919050565b610b9a81610b85565b8114610ba557600080fd5b50565b600081359050610bb781610b91565b92915050565b60008060408385031215610bd457610bd3610a35565b5b600083013567ffffffffffffffff811115610bf257610bf1610a3a565b5b610bfe85828601610b57565b9250506020610c0f85828601610ba8565b9150509250929050565b600060208284031215610c2f57610c2e610a35565b5b600082013567ffffffffffffffff811115610c4d57610c4c610a3a565b5b610c5984828501610b57565b91505092915050565b600073ffffffffffffffffffffffffffffffffffffffff82169050919050565b6000610c8d82610c62565b9050919050565b610c9d81610c82565b82525050565b600081519050919050565b600082825260208201905092915050565b60005b83811015610cdd578082015181840152602081019050610cc2565b83811115610cec576000848401525b50505050565b6000610cfd82610ca3565b610d078185610cae565b9350610d17818560208601610cbf565b610d2081610a49565b840191505092915050565b6000819050919050565b610d3e81610d2b565b82525050565b6000608082019050610d596000830187610c94565b8181036020830152610d6b8186610cf2565b9050610d7a6040830185610d35565b610d876060830184610d35565b95945050505050565b610d9981610b85565b82525050565b6000604082019050610db46000830185610d35565b610dc16020830184610d90565b9392505050565b60008060408385031215610ddf57610dde610a35565b5b600083013567ffffffffffffffff811115610dfd57610dfc610a3a565b5b610e0985828601610b57565b925050602083013567ffffffffffffffff811115610e2a57610e29610a3a565b5b610e3685828601610b57565b9150509250929050565b6000602082019050610e556000830184610c94565b92915050565b610e6481610d2b565b8114610e6f57600080fd5b50565b600081519050610e8181610e5b565b92915050565b600060208284031215610e9d57610e9c610a35565b5b6000610eab84828501610e72565b91505092915050565b7f546f6b656e2042616c616e636520746f6f206c6f772e2052657175697265642060008201527f6d696e696d756d206f662032352050726f746f6e730000000000000000000000602082015250565b6000610f10603583610cae565b9150610f1b82610eb4565b604082019050919050565b60006020820190508181036000830152610f3f81610f03565b9050919050565b600081905092915050565b6000610f5c82610ca3565b610f668185610f46565b9350610f76818560208601610cbf565b80840191505092915050565b6000610f8e8284610f51565b915081905092915050565b7f416c726561647920566f74656400000000000000000000000000000000000000600082015250565b6000610fcf600d83610cae565b9150610fda82610f99565b602082019050919050565b60006020820190508181036000830152610ffe81610fc2565b9050919050565b7f4e487b7100000000000000000000000000000000000000000000000000000000600052601160045260246000fd5b600061103f82610d2b565b915061104a83610d2b565b9250827fffffffffffffffffffffffffffffffffffffffffffffffffffffffffffffffff0382111561107f5761107e611005565b5b828201905092915050565b7f4e487b7100000000000000000000000000000000000000000000000000000000600052602260045260246000fd5b600060028204905060018216806110d157607f821691505b6020821081036110e4576110e361108a565b5b50919050565b7f4e6f20566f746573205265676973746572656420596574000000000000000000600082015250565b6000611120601783610cae565b915061112b826110ea565b602082019050919050565b6000602082019050818103600083015261114f81611113565b9050919050565b7f5369746520416c72656164792041646465640000000000000000000000000000600082015250565b600061118c601283610cae565b915061119782611156565b602082019050919050565b600060208201905081810360008301526111bb8161117f565b9050919050565b7f546f6b656e2042616c616e636520746f6f206c6f772e2052657175697265642060008201527f6d696e696d756d206f6620312050726f746f6e00000000000000000000000000602082015250565b600061121e603383610cae565b9150611229826111c2565b604082019050919050565b6000602082019050818103600083015261124d81611211565b9050919050565b600061125f82610d2b565b915061126a83610d2b565b9250817fffffffffffffffffffffffffffffffffffffffffffffffffffffffffffffffff04831182151516156112a3576112a2611005565b5b828202905092915050565b7f4e487b7100000000000000000000000000000000000000000000000000000000600052601260045260246000fd5b60006112e882610d2b565b91506112f383610d2b565b925082611303576113026112ae565b5b82820490509291505056fea2646970667358221220c092e0c93b0c1eddfb77c15a736d6a29676cb281e413a111da7adfc5d80fe00964736f6c634300080d0033",
  "immutableReferences": {},
  "source": "// SPDX-License-Identifier: UNLICENSED\r\n\r\npragma solidity ^0.8.0;\r\n\r\nimport \"@openzeppelin/contracts/token/ERC20/ERC20.sol\";\r\nimport \"@openzeppelin/contracts/utils/math/SafeMath.sol\";\r\n\r\ncontract validator {\r\n\r\n    using SafeMath for uint256;\r\n\r\n    ERC20 protonToken = ERC20(0x29794fCC95837D24b89906EB202F3408C39826bC);\r\n\r\n    struct site {\r\n        address nominee;\r\n        string comment;\r\n        uint256 yesVotes;\r\n        uint256 noVotes;\r\n        mapping(address => bool) votedYes;\r\n        mapping(address => bool) votedNo;\r\n    }\r\n\r\n    mapping(string => site) public sitelist;\r\n\r\n    event siteAdded(address indexed _nominee, string indexed _url, string indexed _comment);\r\n    event voted(address indexed _validator, bool indexed _isScam);\r\n\r\n    function addSite(string memory _url, string memory _comment) public {\r\n\r\n        site storage s = sitelist[_url];\r\n\r\n        require(bytes(s.comment).length == 0,\"Site Already Added\");\r\n        require(protonToken.balanceOf(msg.sender) >= 1, \"Token Balance too low. Required minimum of 1 Proton\");\r\n\r\n        s.nominee = msg.sender;\r\n        s.comment = _comment;\r\n\r\n        emit siteAdded(msg.sender, _url, _comment);\r\n\r\n    }\r\n\r\n    function castVote(string memory _url, bool _isScam) public onlyValidator { \r\n\r\n        site storage s = sitelist[_url];\r\n\r\n        require(!s.votedYes[msg.sender] && !s.votedNo[msg.sender], \"Already Voted\");\r\n\r\n        if(_isScam){\r\n            s.yesVotes += protonToken.balanceOf(msg.sender);\r\n            s.votedYes[msg.sender] = true;\r\n        } else {\r\n            s.noVotes += protonToken.balanceOf(msg.sender);\r\n            s.votedNo[msg.sender] = true;\r\n        }\r\n\r\n        emit voted(msg.sender, _isScam);\r\n\r\n    }\r\n\r\n    function getVoteStatus(string memory _url) public view returns (uint, bool) {\r\n\r\n        site storage s = sitelist[_url];\r\n\r\n        require(s.yesVotes > 0 || s.noVotes > 0, \"No Votes Registered Yet\");\r\n\r\n        uint256 totalVotes = s.yesVotes.add(s.noVotes);\r\n        uint256 votePercent = s.yesVotes.mul(10 ** 2).div(totalVotes);\r\n        //uint256 votePercent = SafeMath.mul(SafeMath.div(s.yesVotes, SafeMath.add(s.yesVotes, s.noVotes)), 100);\r\n        bool voteStatus;\r\n\r\n        if(votePercent > 50){\r\n            voteStatus = true;\r\n        }else{\r\n            voteStatus = false;\r\n        }\r\n        return (votePercent, voteStatus);\r\n    }\r\n\r\n    // function executePenalise() public {\r\n\r\n    // }\r\n\r\n    // function executeReward() public {\r\n\r\n    // }\r\n\r\n    modifier onlyValidator {\r\n        require(protonToken.balanceOf(msg.sender) >= 25, \"Token Balance too low. Required minimum of 25 Protons\");\r\n        _;\r\n    }\r\n\r\n}",
  "sourcePath": "E:\\Blockchain\\Projects\\scambuster\\contracts\\validator.sol",
  "compiler": {
    "name": "solc",
    "version": "0.8.13+commit.abaa5c0e.Emscripten.clang"
  },
  "schemaVersion": "3.4.4",
  "updatedAt": "2022-04-24T04:44:49.164Z",
  "devdoc": {
    "kind": "dev",
    "methods": {},
    "version": 1
  },
  "userdoc": {
    "kind": "user",
    "methods": {},
    "version": 1
  }
}